{
  "_format": "hh-sol-artifact-1",
  "contractName": "Voting",
  "sourceName": "contracts/SecureVoting.sol",
  "abi": [
    {
      "inputs": [
        {
          "internalType": "string[]",
          "name": "proposalNames",
          "type": "string[]"
        }
      ],
      "stateMutability": "nonpayable",
      "type": "constructor"
    },
    {
      "anonymous": false,
      "inputs": [
        {
          "indexed": true,
          "internalType": "address",
          "name": "voter",
          "type": "address"
        },
        {
          "indexed": true,
          "internalType": "uint256",
          "name": "proposalIndex",
          "type": "uint256"
        }
      ],
      "name": "Voted",
      "type": "event"
    },
    {
      "inputs": [],
      "name": "getAllProposals",
      "outputs": [
        {
          "internalType": "string[]",
          "name": "",
          "type": "string[]"
        }
      ],
      "stateMutability": "view",
      "type": "function"
    },
    {
      "inputs": [
        {
          "internalType": "uint256",
          "name": "proposalIndex",
          "type": "uint256"
        }
      ],
      "name": "getProposal",
      "outputs": [
        {
          "internalType": "string",
          "name": "name",
          "type": "string"
        },
        {
          "internalType": "uint256",
          "name": "voteCount",
          "type": "uint256"
        }
      ],
      "stateMutability": "view",
      "type": "function"
    },
    {
      "inputs": [],
      "name": "getProposalCount",
      "outputs": [
        {
          "internalType": "uint256",
          "name": "",
          "type": "uint256"
        }
      ],
      "stateMutability": "view",
      "type": "function"
    },
    {
      "inputs": [
        {
          "internalType": "address",
          "name": "",
          "type": "address"
        }
      ],
      "name": "hasVoted",
      "outputs": [
        {
          "internalType": "bool",
          "name": "",
          "type": "bool"
        }
      ],
      "stateMutability": "view",
      "type": "function"
    },
    {
      "inputs": [
        {
          "internalType": "uint256",
          "name": "",
          "type": "uint256"
        }
      ],
      "name": "proposals",
      "outputs": [
        {
          "internalType": "string",
          "name": "name",
          "type": "string"
        },
        {
          "internalType": "uint256",
          "name": "voteCount",
          "type": "uint256"
        }
      ],
      "stateMutability": "view",
      "type": "function"
    },
    {
      "inputs": [
        {
          "internalType": "uint256",
          "name": "proposalIndex",
          "type": "uint256"
        }
      ],
      "name": "vote",
      "outputs": [],
      "stateMutability": "nonpayable",
      "type": "function"
    }
  ],
  "bytecode": "0x60806040523480156200001157600080fd5b506040516200137b3803806200137b833981810160405281019062000037919062000373565b60005b8151811015620000dc5760016040518060400160405280848481518110620000675762000066620003c4565b5b60200260200101518152602001600081525090806001815401808255809150506001900390600052602060002090600202016000909190919091506000820151816000019081620000b991906200063e565b506020820151816001015550508080620000d39062000754565b9150506200003a565b5050620007a1565b6000604051905090565b600080fd5b600080fd5b600080fd5b6000601f19601f8301169050919050565b7f4e487b7100000000000000000000000000000000000000000000000000000000600052604160045260246000fd5b6200014882620000fd565b810181811067ffffffffffffffff821117156200016a57620001696200010e565b5b80604052505050565b60006200017f620000e4565b90506200018d82826200013d565b919050565b600067ffffffffffffffff821115620001b057620001af6200010e565b5b602082029050602081019050919050565b600080fd5b600080fd5b600067ffffffffffffffff821115620001e957620001e86200010e565b5b620001f482620000fd565b9050602081019050919050565b60005b838110156200022157808201518184015260208101905062000204565b60008484015250505050565b6000620002446200023e84620001cb565b62000173565b905082815260208101848484011115620002635762000262620001c6565b5b6200027084828562000201565b509392505050565b600082601f83011262000290576200028f620000f8565b5b8151620002a28482602086016200022d565b91505092915050565b6000620002c2620002bc8462000192565b62000173565b90508083825260208201905060208402830185811115620002e857620002e7620001c1565b5b835b818110156200033657805167ffffffffffffffff811115620003115762000310620000f8565b5b80860162000320898262000278565b85526020850194505050602081019050620002ea565b5050509392505050565b600082601f830112620003585762000357620000f8565b5b81516200036a848260208601620002ab565b91505092915050565b6000602082840312156200038c576200038b620000ee565b5b600082015167ffffffffffffffff811115620003ad57620003ac620000f3565b5b620003bb8482850162000340565b91505092915050565b7f4e487b7100000000000000000000000000000000000000000000000000000000600052603260045260246000fd5b600081519050919050565b7f4e487b7100000000000000000000000000000000000000000000000000000000600052602260045260246000fd5b600060028204905060018216806200044657607f821691505b6020821081036200045c576200045b620003fe565b5b50919050565b60008190508160005260206000209050919050565b60006020601f8301049050919050565b600082821b905092915050565b600060088302620004c67fffffffffffffffffffffffffffffffffffffffffffffffffffffffffffffffff8262000487565b620004d2868362000487565b95508019841693508086168417925050509392505050565b6000819050919050565b6000819050919050565b60006200051f620005196200051384620004ea565b620004f4565b620004ea565b9050919050565b6000819050919050565b6200053b83620004fe565b620005536200054a8262000526565b84845462000494565b825550505050565b600090565b6200056a6200055b565b6200057781848462000530565b505050565b5b818110156200059f576200059360008262000560565b6001810190506200057d565b5050565b601f821115620005ee57620005b88162000462565b620005c38462000477565b81016020851015620005d3578190505b620005eb620005e28562000477565b8301826200057c565b50505b505050565b600082821c905092915050565b60006200061360001984600802620005f3565b1980831691505092915050565b60006200062e838362000600565b9150826002028217905092915050565b6200064982620003f3565b67ffffffffffffffff8111156200066557620006646200010e565b5b6200067182546200042d565b6200067e828285620005a3565b600060209050601f831160018114620006b65760008415620006a1578287015190505b620006ad858262000620565b8655506200071d565b601f198416620006c68662000462565b60005b82811015620006f057848901518255600182019150602085019450602081019050620006c9565b868310156200071057848901516200070c601f89168262000600565b8355505b6001600288020188555050505b505050505050565b7f4e487b7100000000000000000000000000000000000000000000000000000000600052601160045260246000fd5b60006200076182620004ea565b91507fffffffffffffffffffffffffffffffffffffffffffffffffffffffffffffffff820362000796576200079562000725565b5b600182019050919050565b610bca80620007b16000396000f3fe608060405234801561001057600080fd5b50600436106100625760003560e01c80630121b93f14610067578063013cf08b1461008357806309eef43e146100b4578063c08cc02d146100e4578063c7f758a814610102578063cceb68f514610133575b600080fd5b610081600480360381019061007c9190610681565b610151565b005b61009d60048036038101906100989190610681565b6102fd565b6040516100ab92919061074d565b60405180910390f35b6100ce60048036038101906100c991906107db565b6103b9565b6040516100db9190610823565b60405180910390f35b6100ec6103d9565b6040516100f9919061083e565b60405180910390f35b61011c60048036038101906101179190610681565b6103e6565b60405161012a92919061074d565b60405180910390f35b61013b6104f6565b6040516101489190610965565b60405180910390f35b6000803373ffffffffffffffffffffffffffffffffffffffff1673ffffffffffffffffffffffffffffffffffffffff16815260200190815260200160002060009054906101000a900460ff16156101dd576040517f08c379a00000000000000000000000000000000000000000000000000000000081526004016101d4906109d3565b60405180910390fd5b6001805490508110610224576040517f08c379a000000000000000000000000000000000000000000000000000000000815260040161021b90610a3f565b60405180910390fd5b60016000803373ffffffffffffffffffffffffffffffffffffffff1673ffffffffffffffffffffffffffffffffffffffff16815260200190815260200160002060006101000a81548160ff0219169083151502179055506001818154811061028f5761028e610a5f565b5b906000526020600020906002020160010160008154809291906102b190610abd565b9190505550803373ffffffffffffffffffffffffffffffffffffffff167f4d99b957a2bc29a30ebd96a7be8e68fe50a3c701db28a91436490b7d53870ca460405160405180910390a350565b6001818154811061030d57600080fd5b906000526020600020906002020160009150905080600001805461033090610b34565b80601f016020809104026020016040519081016040528092919081815260200182805461035c90610b34565b80156103a95780601f1061037e576101008083540402835291602001916103a9565b820191906000526020600020905b81548152906001019060200180831161038c57829003601f168201915b5050505050908060010154905082565b60006020528060005260406000206000915054906101000a900460ff1681565b6000600180549050905090565b606060006001805490508310610431576040517f08c379a000000000000000000000000000000000000000000000000000000000815260040161042890610a3f565b60405180910390fd5b60006001848154811061044757610446610a5f565b5b9060005260206000209060020201905080600001816001015481805461046c90610b34565b80601f016020809104026020016040519081016040528092919081815260200182805461049890610b34565b80156104e55780601f106104ba576101008083540402835291602001916104e5565b820191906000526020600020905b8154815290600101906020018083116104c857829003601f168201915b505050505091509250925050915091565b6060600060018054905067ffffffffffffffff81111561051957610518610b65565b5b60405190808252806020026020018201604052801561054c57816020015b60608152602001906001900390816105375790505b50905060005b60018054905081101561063e576001818154811061057357610572610a5f565b5b9060005260206000209060020201600001805461058f90610b34565b80601f01602080910402602001604051908101604052809291908181526020018280546105bb90610b34565b80156106085780601f106105dd57610100808354040283529160200191610608565b820191906000526020600020905b8154815290600101906020018083116105eb57829003601f168201915b50505050508282815181106106205761061f610a5f565b5b6020026020010181905250808061063690610abd565b915050610552565b508091505090565b600080fd5b6000819050919050565b61065e8161064b565b811461066957600080fd5b50565b60008135905061067b81610655565b92915050565b60006020828403121561069757610696610646565b5b60006106a58482850161066c565b91505092915050565b600081519050919050565b600082825260208201905092915050565b60005b838110156106e85780820151818401526020810190506106cd565b60008484015250505050565b6000601f19601f8301169050919050565b6000610710826106ae565b61071a81856106b9565b935061072a8185602086016106ca565b610733816106f4565b840191505092915050565b6107478161064b565b82525050565b600060408201905081810360008301526107678185610705565b9050610776602083018461073e565b9392505050565b600073ffffffffffffffffffffffffffffffffffffffff82169050919050565b60006107a88261077d565b9050919050565b6107b88161079d565b81146107c357600080fd5b50565b6000813590506107d5816107af565b92915050565b6000602082840312156107f1576107f0610646565b5b60006107ff848285016107c6565b91505092915050565b60008115159050919050565b61081d81610808565b82525050565b60006020820190506108386000830184610814565b92915050565b6000602082019050610853600083018461073e565b92915050565b600081519050919050565b600082825260208201905092915050565b6000819050602082019050919050565b600082825260208201905092915050565b60006108a1826106ae565b6108ab8185610885565b93506108bb8185602086016106ca565b6108c4816106f4565b840191505092915050565b60006108db8383610896565b905092915050565b6000602082019050919050565b60006108fb82610859565b6109058185610864565b93508360208202850161091785610875565b8060005b85811015610953578484038952815161093485826108cf565b945061093f836108e3565b925060208a0199505060018101905061091b565b50829750879550505050505092915050565b6000602082019050818103600083015261097f81846108f0565b905092915050565b7f596f75206861766520616c726561647920766f7465642e000000000000000000600082015250565b60006109bd6017836106b9565b91506109c882610987565b602082019050919050565b600060208201905081810360008301526109ec816109b0565b9050919050565b7f496e76616c69642070726f706f73616c20696e6465782e000000000000000000600082015250565b6000610a296017836106b9565b9150610a34826109f3565b602082019050919050565b60006020820190508181036000830152610a5881610a1c565b9050919050565b7f4e487b7100000000000000000000000000000000000000000000000000000000600052603260045260246000fd5b7f4e487b7100000000000000000000000000000000000000000000000000000000600052601160045260246000fd5b6000610ac88261064b565b91507fffffffffffffffffffffffffffffffffffffffffffffffffffffffffffffffff8203610afa57610af9610a8e565b5b600182019050919050565b7f4e487b7100000000000000000000000000000000000000000000000000000000600052602260045260246000fd5b60006002820490506001821680610b4c57607f821691505b602082108103610b5f57610b5e610b05565b5b50919050565b7f4e487b7100000000000000000000000000000000000000000000000000000000600052604160045260246000fdfea264697066735822122031a62410e2c360d5228e88e6222435a5d48dcce05340a8d260e156427e8cbb7764736f6c63430008120033",
  "linkReferences": {},
  "deployedLinkReferences": {}
}