{
  "_format": "hh-sol-artifact-1",
  "contractName": "Voting",
  "sourceName": "contracts/SecureVoting.sol",
  "abi": [
    {
      "inputs": [
        {
          "internalType": "string[]",
          "name": "proposalNames",
          "type": "string[]"
        }
      ],
      "stateMutability": "nonpayable",
      "type": "constructor"
    },
    {
      "anonymous": false,
      "inputs": [
        {
          "indexed": true,
          "internalType": "address",
          "name": "voter",
          "type": "address"
        },
        {
          "indexed": true,
          "internalType": "uint256",
          "name": "proposalIndex",
          "type": "uint256"
        }
      ],
      "name": "Voted",
      "type": "event"
    },
    {
      "inputs": [],
      "name": "getAllProposals",
      "outputs": [
        {
          "internalType": "string[]",
          "name": "",
          "type": "string[]"
        }
      ],
      "stateMutability": "view",
      "type": "function"
    },
    {
      "inputs": [
        {
          "internalType": "uint256",
          "name": "proposalIndex",
          "type": "uint256"
        }
      ],
      "name": "getProposal",
      "outputs": [
        {
          "internalType": "string",
          "name": "name",
          "type": "string"
        },
        {
          "internalType": "uint256",
          "name": "voteCount",
          "type": "uint256"
        }
      ],
      "stateMutability": "view",
      "type": "function"
    },
    {
      "inputs": [],
      "name": "getProposalCount",
      "outputs": [
        {
          "internalType": "uint256",
          "name": "",
          "type": "uint256"
        }
      ],
      "stateMutability": "view",
      "type": "function"
    },
    {
      "inputs": [
        {
          "internalType": "address",
          "name": "",
          "type": "address"
        }
      ],
      "name": "hasVoted",
      "outputs": [
        {
          "internalType": "bool",
          "name": "",
          "type": "bool"
        }
      ],
      "stateMutability": "view",
      "type": "function"
    },
    {
      "inputs": [
        {
          "internalType": "uint256",
          "name": "",
          "type": "uint256"
        }
      ],
      "name": "proposals",
      "outputs": [
        {
          "internalType": "string",
          "name": "name",
          "type": "string"
        },
        {
          "internalType": "uint256",
          "name": "voteCount",
          "type": "uint256"
        }
      ],
      "stateMutability": "view",
      "type": "function"
    },
    {
      "inputs": [
        {
          "internalType": "uint256",
          "name": "proposalIndex",
          "type": "uint256"
        }
      ],
      "name": "vote",
      "outputs": [],
      "stateMutability": "nonpayable",
      "type": "function"
    }
  ],
  "bytecode": "0x608060405234801561001057600080fd5b506040516112683803806112688339818101604052810190610032919061032a565b60005b81518110156100c8576001604051806040016040528084848151811061005e5761005d610373565b5b602002602001015181526020016000815250908060018154018082558091505060019003906000526020600020906002020160009091909190915060008201518160000190816100ae91906105c3565b506020820151816001015550508080600101915050610035565b5050610695565b6000604051905090565b600080fd5b600080fd5b600080fd5b6000601f19601f8301169050919050565b7f4e487b7100000000000000000000000000000000000000000000000000000000600052604160045260246000fd5b610131826100e8565b810181811067ffffffffffffffff821117156101505761014f6100f9565b5b80604052505050565b60006101636100cf565b905061016f8282610128565b919050565b600067ffffffffffffffff82111561018f5761018e6100f9565b5b602082029050602081019050919050565b600080fd5b600080fd5b600067ffffffffffffffff8211156101c5576101c46100f9565b5b6101ce826100e8565b9050602081019050919050565b60005b838110156101f95780820151818401526020810190506101de565b60008484015250505050565b6000610218610213846101aa565b610159565b905082815260208101848484011115610234576102336101a5565b5b61023f8482856101db565b509392505050565b600082601f83011261025c5761025b6100e3565b5b815161026c848260208601610205565b91505092915050565b600061028861028384610174565b610159565b905080838252602082019050602084028301858111156102ab576102aa6101a0565b5b835b818110156102f257805167ffffffffffffffff8111156102d0576102cf6100e3565b5b8086016102dd8982610247565b855260208501945050506020810190506102ad565b5050509392505050565b600082601f830112610311576103106100e3565b5b8151610321848260208601610275565b91505092915050565b6000602082840312156103405761033f6100d9565b5b600082015167ffffffffffffffff81111561035e5761035d6100de565b5b61036a848285016102fc565b91505092915050565b7f4e487b7100000000000000000000000000000000000000000000000000000000600052603260045260246000fd5b600081519050919050565b7f4e487b7100000000000000000000000000000000000000000000000000000000600052602260045260246000fd5b600060028204905060018216806103f457607f821691505b602082108103610407576104066103ad565b5b50919050565b60008190508160005260206000209050919050565b60006020601f8301049050919050565b600082821b905092915050565b60006008830261046f7fffffffffffffffffffffffffffffffffffffffffffffffffffffffffffffffff82610432565b6104798683610432565b95508019841693508086168417925050509392505050565b6000819050919050565b6000819050919050565b60006104c06104bb6104b684610491565b61049b565b610491565b9050919050565b6000819050919050565b6104da836104a5565b6104ee6104e6826104c7565b84845461043f565b825550505050565b600090565b6105036104f6565b61050e8184846104d1565b505050565b5b81811015610532576105276000826104fb565b600181019050610514565b5050565b601f821115610577576105488161040d565b61055184610422565b81016020851015610560578190505b61057461056c85610422565b830182610513565b50505b505050565b600082821c905092915050565b600061059a6000198460080261057c565b1980831691505092915050565b60006105b38383610589565b9150826002028217905092915050565b6105cc826103a2565b67ffffffffffffffff8111156105e5576105e46100f9565b5b6105ef82546103dc565b6105fa828285610536565b600060209050601f83116001811461062d576000841561061b578287015190505b61062585826105a7565b86555061068d565b601f19841661063b8661040d565b60005b828110156106635784890151825560018201915060208501945060208101905061063e565b86831015610680578489015161067c601f891682610589565b8355505b6001600288020188555050505b505050505050565b610bc4806106a46000396000f3fe608060405234801561001057600080fd5b50600436106100625760003560e01c80630121b93f14610067578063013cf08b1461008357806309eef43e146100b4578063c08cc02d146100e4578063c7f758a814610102578063cceb68f514610133575b600080fd5b610081600480360381019061007c919061067b565b610151565b005b61009d6004803603810190610098919061067b565b6102fd565b6040516100ab929190610747565b60405180910390f35b6100ce60048036038101906100c991906107d5565b6103b9565b6040516100db919061081d565b60405180910390f35b6100ec6103d9565b6040516100f99190610838565b60405180910390f35b61011c6004803603810190610117919061067b565b6103e6565b60405161012a929190610747565b60405180910390f35b61013b6104f6565b604051610148919061095f565b60405180910390f35b6000803373ffffffffffffffffffffffffffffffffffffffff1673ffffffffffffffffffffffffffffffffffffffff16815260200190815260200160002060009054906101000a900460ff16156101dd576040517f08c379a00000000000000000000000000000000000000000000000000000000081526004016101d4906109cd565b60405180910390fd5b6001805490508110610224576040517f08c379a000000000000000000000000000000000000000000000000000000000815260040161021b90610a39565b60405180910390fd5b60016000803373ffffffffffffffffffffffffffffffffffffffff1673ffffffffffffffffffffffffffffffffffffffff16815260200190815260200160002060006101000a81548160ff0219169083151502179055506001818154811061028f5761028e610a59565b5b906000526020600020906002020160010160008154809291906102b190610ab7565b9190505550803373ffffffffffffffffffffffffffffffffffffffff167f4d99b957a2bc29a30ebd96a7be8e68fe50a3c701db28a91436490b7d53870ca460405160405180910390a350565b6001818154811061030d57600080fd5b906000526020600020906002020160009150905080600001805461033090610b2e565b80601f016020809104026020016040519081016040528092919081815260200182805461035c90610b2e565b80156103a95780601f1061037e576101008083540402835291602001916103a9565b820191906000526020600020905b81548152906001019060200180831161038c57829003601f168201915b5050505050908060010154905082565b60006020528060005260406000206000915054906101000a900460ff1681565b6000600180549050905090565b606060006001805490508310610431576040517f08c379a000000000000000000000000000000000000000000000000000000000815260040161042890610a39565b60405180910390fd5b60006001848154811061044757610446610a59565b5b9060005260206000209060020201905080600001816001015481805461046c90610b2e565b80601f016020809104026020016040519081016040528092919081815260200182805461049890610b2e565b80156104e55780601f106104ba576101008083540402835291602001916104e5565b820191906000526020600020905b8154815290600101906020018083116104c857829003601f168201915b505050505091509250925050915091565b6060600060018054905067ffffffffffffffff81111561051957610518610b5f565b5b60405190808252806020026020018201604052801561054c57816020015b60608152602001906001900390816105375790505b50905060005b600180549050811015610638576001818154811061057357610572610a59565b5b9060005260206000209060020201600001805461058f90610b2e565b80601f01602080910402602001604051908101604052809291908181526020018280546105bb90610b2e565b80156106085780601f106105dd57610100808354040283529160200191610608565b820191906000526020600020905b8154815290600101906020018083116105eb57829003601f168201915b50505050508282815181106106205761061f610a59565b5b60200260200101819052508080600101915050610552565b508091505090565b600080fd5b6000819050919050565b61065881610645565b811461066357600080fd5b50565b6000813590506106758161064f565b92915050565b60006020828403121561069157610690610640565b5b600061069f84828501610666565b91505092915050565b600081519050919050565b600082825260208201905092915050565b60005b838110156106e25780820151818401526020810190506106c7565b60008484015250505050565b6000601f19601f8301169050919050565b600061070a826106a8565b61071481856106b3565b93506107248185602086016106c4565b61072d816106ee565b840191505092915050565b61074181610645565b82525050565b6000604082019050818103600083015261076181856106ff565b90506107706020830184610738565b9392505050565b600073ffffffffffffffffffffffffffffffffffffffff82169050919050565b60006107a282610777565b9050919050565b6107b281610797565b81146107bd57600080fd5b50565b6000813590506107cf816107a9565b92915050565b6000602082840312156107eb576107ea610640565b5b60006107f9848285016107c0565b91505092915050565b60008115159050919050565b61081781610802565b82525050565b6000602082019050610832600083018461080e565b92915050565b600060208201905061084d6000830184610738565b92915050565b600081519050919050565b600082825260208201905092915050565b6000819050602082019050919050565b600082825260208201905092915050565b600061089b826106a8565b6108a5818561087f565b93506108b58185602086016106c4565b6108be816106ee565b840191505092915050565b60006108d58383610890565b905092915050565b6000602082019050919050565b60006108f582610853565b6108ff818561085e565b9350836020820285016109118561086f565b8060005b8581101561094d578484038952815161092e85826108c9565b9450610939836108dd565b925060208a01995050600181019050610915565b50829750879550505050505092915050565b6000602082019050818103600083015261097981846108ea565b905092915050565b7f596f75206861766520616c726561647920766f7465642e000000000000000000600082015250565b60006109b76017836106b3565b91506109c282610981565b602082019050919050565b600060208201905081810360008301526109e6816109aa565b9050919050565b7f496e76616c69642070726f706f73616c20696e6465782e000000000000000000600082015250565b6000610a236017836106b3565b9150610a2e826109ed565b602082019050919050565b60006020820190508181036000830152610a5281610a16565b9050919050565b7f4e487b7100000000000000000000000000000000000000000000000000000000600052603260045260246000fd5b7f4e487b7100000000000000000000000000000000000000000000000000000000600052601160045260246000fd5b6000610ac282610645565b91507fffffffffffffffffffffffffffffffffffffffffffffffffffffffffffffffff8203610af457610af3610a88565b5b600182019050919050565b7f4e487b7100000000000000000000000000000000000000000000000000000000600052602260045260246000fd5b60006002820490506001821680610b4657607f821691505b602082108103610b5957610b58610aff565b5b50919050565b7f4e487b7100000000000000000000000000000000000000000000000000000000600052604160045260246000fdfea2646970667358221220d13026f1dee32c7b2834db654019e8394efa141e4ad27296a26489efee624f5e64736f6c634300081c0033",
  "linkReferences": {},
  "deployedLinkReferences": {}
}